{
  "address": "0x20E42bB1a3174d931691d77c4CFe1a116F1415bB",
  "abi": [
    {
      "inputs": [
        {
          "internalType": "address",
          "name": "risky",
          "type": "address"
        },
        {
          "internalType": "address",
          "name": "riskFree",
          "type": "address"
        }
      ],
      "stateMutability": "nonpayable",
      "type": "constructor"
    },
    {
      "anonymous": false,
      "inputs": [
        {
          "indexed": true,
          "internalType": "address",
          "name": "from",
          "type": "address"
        },
        {
          "indexed": true,
          "internalType": "uint256",
          "name": "nonce",
          "type": "uint256"
        },
        {
          "indexed": false,
          "internalType": "uint256",
          "name": "deltaX",
          "type": "uint256"
        },
        {
          "indexed": false,
          "internalType": "uint256",
          "name": "deltaY",
          "type": "uint256"
        }
      ],
      "name": "AddedBoth",
      "type": "event"
    },
    {
      "anonymous": false,
      "inputs": [
        {
          "indexed": true,
          "internalType": "address",
          "name": "from",
          "type": "address"
        },
        {
          "indexed": true,
          "internalType": "uint256",
          "name": "nonce",
          "type": "uint256"
        },
        {
          "indexed": false,
          "internalType": "uint256",
          "name": "deltaX",
          "type": "uint256"
        },
        {
          "indexed": false,
          "internalType": "uint256",
          "name": "deltaY",
          "type": "uint256"
        }
      ],
      "name": "AddedX",
      "type": "event"
    },
    {
      "anonymous": false,
      "inputs": [
        {
          "indexed": true,
          "internalType": "address",
          "name": "from",
          "type": "address"
        },
        {
          "components": [
            {
              "internalType": "address",
              "name": "owner",
              "type": "address"
            },
            {
              "internalType": "uint256",
              "name": "nonce",
              "type": "uint256"
            },
            {
              "internalType": "uint256",
              "name": "BX1",
              "type": "uint256"
            },
            {
              "internalType": "uint256",
              "name": "BY2",
              "type": "uint256"
            },
            {
              "internalType": "uint256",
              "name": "liquidity",
              "type": "uint256"
            },
            {
              "internalType": "bool",
              "name": "unlocked",
              "type": "bool"
            }
          ],
          "indexed": false,
          "internalType": "struct PrimitiveEngine.Position",
          "name": "pos",
          "type": "tuple"
        }
      ],
      "name": "PositionUpdated",
      "type": "event"
    },
    {
      "anonymous": false,
      "inputs": [
        {
          "indexed": true,
          "internalType": "address",
          "name": "from",
          "type": "address"
        },
        {
          "indexed": true,
          "internalType": "uint256",
          "name": "nonce",
          "type": "uint256"
        },
        {
          "indexed": false,
          "internalType": "uint256",
          "name": "deltaX",
          "type": "uint256"
        },
        {
          "indexed": false,
          "internalType": "uint256",
          "name": "deltaY",
          "type": "uint256"
        }
      ],
      "name": "RemovedBoth",
      "type": "event"
    },
    {
      "anonymous": false,
      "inputs": [
        {
          "indexed": true,
          "internalType": "address",
          "name": "from",
          "type": "address"
        },
        {
          "indexed": true,
          "internalType": "uint256",
          "name": "nonce",
          "type": "uint256"
        },
        {
          "indexed": false,
          "internalType": "uint256",
          "name": "deltaX",
          "type": "uint256"
        },
        {
          "indexed": false,
          "internalType": "uint256",
          "name": "deltaY",
          "type": "uint256"
        }
      ],
      "name": "RemovedX",
      "type": "event"
    },
    {
      "anonymous": false,
      "inputs": [
        {
          "indexed": false,
          "internalType": "uint256",
          "name": "R1",
          "type": "uint256"
        },
        {
          "indexed": false,
          "internalType": "uint256",
          "name": "R2",
          "type": "uint256"
        },
        {
          "indexed": false,
          "internalType": "uint256",
          "name": "blockNumber",
          "type": "uint256"
        }
      ],
      "name": "Update",
      "type": "event"
    },
    {
      "inputs": [],
      "name": "FEE",
      "outputs": [
        {
          "internalType": "uint256",
          "name": "",
          "type": "uint256"
        }
      ],
      "stateMutability": "view",
      "type": "function"
    },
    {
      "inputs": [],
      "name": "INIT_SUPPLY",
      "outputs": [
        {
          "internalType": "uint256",
          "name": "",
          "type": "uint256"
        }
      ],
      "stateMutability": "view",
      "type": "function"
    },
    {
      "inputs": [],
      "name": "TX1",
      "outputs": [
        {
          "internalType": "address",
          "name": "",
          "type": "address"
        }
      ],
      "stateMutability": "view",
      "type": "function"
    },
    {
      "inputs": [],
      "name": "TY2",
      "outputs": [
        {
          "internalType": "address",
          "name": "",
          "type": "address"
        }
      ],
      "stateMutability": "view",
      "type": "function"
    },
    {
      "inputs": [
        {
          "internalType": "uint256",
          "name": "deltaX",
          "type": "uint256"
        }
      ],
      "name": "_getInputR2",
      "outputs": [
        {
          "internalType": "int128",
          "name": "",
          "type": "int128"
        }
      ],
      "stateMutability": "view",
      "type": "function"
    },
    {
      "inputs": [
        {
          "internalType": "uint256",
          "name": "deltaX",
          "type": "uint256"
        }
      ],
      "name": "_getInputR2Scaled",
      "outputs": [
        {
          "internalType": "uint256",
          "name": "",
          "type": "uint256"
        }
      ],
      "stateMutability": "view",
      "type": "function"
    },
    {
      "inputs": [
        {
          "internalType": "uint256",
          "name": "deltaX",
          "type": "uint256"
        }
      ],
      "name": "_getOutputR2",
      "outputs": [
        {
          "internalType": "int128",
          "name": "",
          "type": "int128"
        }
      ],
      "stateMutability": "view",
      "type": "function"
    },
    {
      "inputs": [
        {
          "internalType": "uint256",
          "name": "deltaX",
          "type": "uint256"
        }
      ],
      "name": "_getOutputR2Scaled",
      "outputs": [
        {
          "internalType": "uint256",
          "name": "",
          "type": "uint256"
        }
      ],
      "stateMutability": "view",
      "type": "function"
    },
    {
      "inputs": [
        {
          "internalType": "uint256",
          "name": "postR1",
          "type": "uint256"
        },
        {
          "internalType": "uint256",
          "name": "postR2",
          "type": "uint256"
        }
      ],
      "name": "_update",
      "outputs": [],
      "stateMutability": "nonpayable",
      "type": "function"
    },
    {
      "inputs": [],
      "name": "accumulator",
      "outputs": [
        {
          "internalType": "uint256",
          "name": "ARX1",
          "type": "uint256"
        },
        {
          "internalType": "uint256",
          "name": "ARX2",
          "type": "uint256"
        },
        {
          "internalType": "uint256",
          "name": "blockNumberLast",
          "type": "uint256"
        }
      ],
      "stateMutability": "view",
      "type": "function"
    },
    {
      "inputs": [],
      "name": "activePosition",
      "outputs": [
        {
          "internalType": "address",
          "name": "owner",
          "type": "address"
        },
        {
          "internalType": "uint256",
          "name": "nonce",
          "type": "uint256"
        },
        {
          "internalType": "uint256",
          "name": "BX1",
          "type": "uint256"
        },
        {
          "internalType": "uint256",
          "name": "BY2",
          "type": "uint256"
        },
        {
          "internalType": "uint256",
          "name": "liquidity",
          "type": "uint256"
        },
        {
          "internalType": "bool",
          "name": "unlocked",
          "type": "bool"
        }
      ],
      "stateMutability": "view",
      "type": "function"
    },
    {
      "inputs": [
        {
          "internalType": "address",
          "name": "owner",
          "type": "address"
        },
        {
          "internalType": "uint256",
          "name": "nonce",
          "type": "uint256"
        },
        {
          "internalType": "uint256",
          "name": "deltaL",
          "type": "uint256"
        }
      ],
      "name": "addBoth",
      "outputs": [
        {
          "internalType": "uint256",
          "name": "",
          "type": "uint256"
        },
        {
          "internalType": "uint256",
          "name": "",
          "type": "uint256"
        }
      ],
      "stateMutability": "nonpayable",
      "type": "function"
    },
    {
      "inputs": [
        {
          "internalType": "address",
          "name": "owner",
          "type": "address"
        },
        {
          "internalType": "uint256",
          "name": "nonce",
          "type": "uint256"
        },
        {
          "internalType": "uint256",
          "name": "deltaX",
          "type": "uint256"
        },
        {
          "internalType": "uint256",
          "name": "minDeltaY",
          "type": "uint256"
        }
      ],
      "name": "addX",
      "outputs": [
        {
          "internalType": "uint256",
          "name": "",
          "type": "uint256"
        }
      ],
      "stateMutability": "nonpayable",
      "type": "function"
    },
    {
      "inputs": [],
      "name": "calibration",
      "outputs": [
        {
          "internalType": "uint256",
          "name": "strike",
          "type": "uint256"
        },
        {
          "internalType": "uint32",
          "name": "sigma",
          "type": "uint32"
        },
        {
          "internalType": "uint32",
          "name": "time",
          "type": "uint32"
        }
      ],
      "stateMutability": "view",
      "type": "function"
    },
    {
      "inputs": [],
      "name": "capital",
      "outputs": [
        {
          "internalType": "uint256",
          "name": "RX1",
          "type": "uint256"
        },
        {
          "internalType": "uint256",
          "name": "RX2",
          "type": "uint256"
        },
        {
          "internalType": "uint256",
          "name": "liquidity",
          "type": "uint256"
        }
      ],
      "stateMutability": "view",
      "type": "function"
    },
    {
      "inputs": [
        {
          "internalType": "address",
          "name": "owner",
          "type": "address"
        },
        {
          "internalType": "uint256",
          "name": "nonce",
          "type": "uint256"
        },
        {
          "internalType": "uint256",
          "name": "deltaX",
          "type": "uint256"
        },
        {
          "internalType": "uint256",
          "name": "deltaY",
          "type": "uint256"
        }
      ],
      "name": "directDeposit",
      "outputs": [
        {
          "internalType": "bool",
          "name": "",
          "type": "bool"
        }
      ],
      "stateMutability": "nonpayable",
      "type": "function"
    },
    {
      "inputs": [
        {
          "internalType": "address",
          "name": "owner",
          "type": "address"
        },
        {
          "internalType": "uint256",
          "name": "nonce",
          "type": "uint256"
        },
        {
          "internalType": "uint256",
          "name": "deltaX",
          "type": "uint256"
        },
        {
          "internalType": "uint256",
          "name": "deltaY",
          "type": "uint256"
        }
      ],
      "name": "directWithdrawal",
      "outputs": [
        {
          "internalType": "bool",
          "name": "",
          "type": "bool"
        }
      ],
      "stateMutability": "nonpayable",
      "type": "function"
    },
    {
      "inputs": [],
      "name": "getAccumulator",
      "outputs": [
        {
          "components": [
            {
              "internalType": "uint256",
              "name": "ARX1",
              "type": "uint256"
            },
            {
              "internalType": "uint256",
              "name": "ARX2",
              "type": "uint256"
            },
            {
              "internalType": "uint256",
              "name": "blockNumberLast",
              "type": "uint256"
            }
          ],
          "internalType": "struct PrimitiveEngine.Accumulator",
          "name": "",
          "type": "tuple"
        }
      ],
      "stateMutability": "view",
      "type": "function"
    },
    {
      "inputs": [],
      "name": "getBX1",
      "outputs": [
        {
          "internalType": "uint256",
          "name": "",
          "type": "uint256"
        }
      ],
      "stateMutability": "view",
      "type": "function"
    },
    {
      "inputs": [],
      "name": "getBY2",
      "outputs": [
        {
          "internalType": "uint256",
          "name": "",
          "type": "uint256"
        }
      ],
      "stateMutability": "view",
      "type": "function"
    },
    {
      "inputs": [
        {
          "internalType": "uint256",
          "name": "x",
          "type": "uint256"
        }
      ],
      "name": "getCDF",
      "outputs": [
        {
          "internalType": "int128",
          "name": "",
          "type": "int128"
        }
      ],
      "stateMutability": "view",
      "type": "function"
    },
    {
      "inputs": [],
      "name": "getCalibration",
      "outputs": [
        {
          "components": [
            {
              "internalType": "uint256",
              "name": "strike",
              "type": "uint256"
            },
            {
              "internalType": "uint32",
              "name": "sigma",
              "type": "uint32"
            },
            {
              "internalType": "uint32",
              "name": "time",
              "type": "uint32"
            }
          ],
          "internalType": "struct PrimitiveEngine.Calibration",
          "name": "",
          "type": "tuple"
        }
      ],
      "stateMutability": "view",
      "type": "function"
    },
    {
      "inputs": [],
      "name": "getCapital",
      "outputs": [
        {
          "components": [
            {
              "internalType": "uint256",
              "name": "RX1",
              "type": "uint256"
            },
            {
              "internalType": "uint256",
              "name": "RX2",
              "type": "uint256"
            },
            {
              "internalType": "uint256",
              "name": "liquidity",
              "type": "uint256"
            }
          ],
          "internalType": "struct PrimitiveEngine.Capital",
          "name": "",
          "type": "tuple"
        }
      ],
      "stateMutability": "view",
      "type": "function"
    },
    {
      "inputs": [
        {
          "internalType": "uint256",
          "name": "deltaX",
          "type": "uint256"
        }
      ],
      "name": "getInputAmount",
      "outputs": [
        {
          "internalType": "uint256",
          "name": "",
          "type": "uint256"
        }
      ],
      "stateMutability": "view",
      "type": "function"
    },
    {
      "inputs": [
        {
          "internalType": "uint256",
          "name": "postR1",
          "type": "uint256"
        },
        {
          "internalType": "uint256",
          "name": "postR2",
          "type": "uint256"
        }
      ],
      "name": "getInvariant",
      "outputs": [
        {
          "internalType": "int128",
          "name": "",
          "type": "int128"
        }
      ],
      "stateMutability": "view",
      "type": "function"
    },
    {
      "inputs": [
        {
          "internalType": "uint256",
          "name": "deltaX",
          "type": "uint256"
        }
      ],
      "name": "getOutputAmount",
      "outputs": [
        {
          "internalType": "uint256",
          "name": "",
          "type": "uint256"
        }
      ],
      "stateMutability": "view",
      "type": "function"
    },
    {
      "inputs": [
        {
          "internalType": "address",
          "name": "owner",
          "type": "address"
        },
        {
          "internalType": "uint256",
          "name": "nonce",
          "type": "uint256"
        }
      ],
      "name": "getPosition",
      "outputs": [
        {
          "components": [
            {
              "internalType": "address",
              "name": "owner",
              "type": "address"
            },
            {
              "internalType": "uint256",
              "name": "nonce",
              "type": "uint256"
            },
            {
              "internalType": "uint256",
              "name": "BX1",
              "type": "uint256"
            },
            {
              "internalType": "uint256",
              "name": "BY2",
              "type": "uint256"
            },
            {
              "internalType": "uint256",
              "name": "liquidity",
              "type": "uint256"
            },
            {
              "internalType": "bool",
              "name": "unlocked",
              "type": "bool"
            }
          ],
          "internalType": "struct PrimitiveEngine.Position",
          "name": "",
          "type": "tuple"
        }
      ],
      "stateMutability": "view",
      "type": "function"
    },
    {
      "inputs": [
        {
          "internalType": "uint256",
          "name": "strike_",
          "type": "uint256"
        },
        {
          "internalType": "uint32",
          "name": "sigma_",
          "type": "uint32"
        },
        {
          "internalType": "uint32",
          "name": "time_",
          "type": "uint32"
        }
      ],
      "name": "initialize",
      "outputs": [],
      "stateMutability": "nonpayable",
      "type": "function"
    },
    {
      "inputs": [],
      "name": "invariantLast",
      "outputs": [
        {
          "internalType": "int128",
          "name": "",
          "type": "int128"
        }
      ],
      "stateMutability": "view",
      "type": "function"
    },
    {
      "inputs": [
        {
          "internalType": "bytes32",
          "name": "",
          "type": "bytes32"
        }
      ],
      "name": "positions",
      "outputs": [
        {
          "internalType": "address",
          "name": "owner",
          "type": "address"
        },
        {
          "internalType": "uint256",
          "name": "nonce",
          "type": "uint256"
        },
        {
          "internalType": "uint256",
          "name": "BX1",
          "type": "uint256"
        },
        {
          "internalType": "uint256",
          "name": "BY2",
          "type": "uint256"
        },
        {
          "internalType": "uint256",
          "name": "liquidity",
          "type": "uint256"
        },
        {
          "internalType": "bool",
          "name": "unlocked",
          "type": "bool"
        }
      ],
      "stateMutability": "view",
      "type": "function"
    },
    {
      "inputs": [],
      "name": "proportionalVol",
      "outputs": [
        {
          "internalType": "int128",
          "name": "",
          "type": "int128"
        }
      ],
      "stateMutability": "view",
      "type": "function"
    },
    {
      "inputs": [
        {
          "internalType": "uint256",
          "name": "nonce",
          "type": "uint256"
        },
        {
          "internalType": "uint256",
          "name": "deltaL",
          "type": "uint256"
        }
      ],
      "name": "removeBoth",
      "outputs": [
        {
          "internalType": "uint256",
          "name": "",
          "type": "uint256"
        },
        {
          "internalType": "uint256",
          "name": "",
          "type": "uint256"
        }
      ],
      "stateMutability": "nonpayable",
      "type": "function"
    },
    {
      "inputs": [
        {
          "internalType": "address",
          "name": "owner",
          "type": "address"
        },
        {
          "internalType": "uint256",
          "name": "nonce",
          "type": "uint256"
        },
        {
          "internalType": "uint256",
          "name": "deltaX",
          "type": "uint256"
        },
        {
          "internalType": "uint256",
          "name": "maxDeltaY",
          "type": "uint256"
        }
      ],
      "name": "removeX",
      "outputs": [
        {
          "internalType": "uint256",
          "name": "",
          "type": "uint256"
        }
      ],
      "stateMutability": "nonpayable",
      "type": "function"
    },
    {
      "inputs": [
        {
          "internalType": "uint256",
          "name": "deltaX",
          "type": "uint256"
        },
        {
          "internalType": "uint256",
          "name": "deltaY",
          "type": "uint256"
        }
      ],
      "name": "start",
      "outputs": [
        {
          "internalType": "bool",
          "name": "",
          "type": "bool"
        }
      ],
      "stateMutability": "nonpayable",
      "type": "function"
    },
    {
      "inputs": [],
      "name": "tradingFunction",
      "outputs": [
        {
          "internalType": "int128",
          "name": "",
          "type": "int128"
        }
      ],
      "stateMutability": "view",
      "type": "function"
    }
  ],
  "transactionHash": "0x8e7827246bd380bfc011fca61a753f3f580139714c0f540f9c9bd0a5f2dcc3ee",
  "args": [
    "0xf09A9Db4327b16A9663e46f49bDaab1A0BEC1252",
    "0xf292A6Aa8fAEfC375326AC64bA69904301bD210b"
  ],
  "solcInputHash": "9bd76d2b028c8abd6ef791d09e1ac8d1",
  "bytecode": "0x60c06040523480156200001157600080fd5b5060405162003a1c38038062003a1c833981016040819052620000349162000070565b6001600160601b0319606092831b8116608052911b1660a052620000a7565b80516001600160a01b03811681146200006b57600080fd5b919050565b6000806040838503121562000083578182fd5b6200008e8362000053565b91506200009e6020840162000053565b90509250929050565b60805160601c60a05160601c613937620000e5600039806104bd52806105c85280610fe0525080610a6c5280610fac52806116e752506139376000f3fe608060405234801561001057600080fd5b50600436106102115760003560e01c80638fb4b57311610125578063cef42bc2116100ad578063d4be70f31161007c578063d4be70f314610458578063e00323831461046b578063e3775d7914610480578063f133a7c614610488578063ff40807b1461049b57610211565b8063cef42bc214610422578063cfe703b614610435578063d211fd181461043d578063d29d53e81461044557610211565b8063c57981b5116100f4578063c57981b5146103d1578063c866c218146103d9578063cabeb725146103ee578063cc85d00b14610405578063cdc0c82d1461040d57610211565b80638fb4b57314610390578063956cc859146103a3578063b76da050146103ab578063bcb4aff8146103be57610211565b80633adbb5af116101a85780635d719c63116101775780635d719c63146103235780636c3686921461033657806372e8b44814610349578063867886431461035c5780638b99bcb51461036f57610211565b80633adbb5af146102d5578063401e52f9146102f55780634ba1502814610308578063514ea4bf1461031057610211565b80631157c2d2116101e45780631157c2d21461027a57806332112d091461028f57806338f05975146102a25780633a6d00b3146102b557610211565b8063018ad9c314610216578063033811541461023457806307f293f71461024b5780630f0dab5114610260575b600080fd5b61021e6104a3565b60405161022b9190613850565b60405180910390f35b61023c610547565b60405161022b93929190613867565b610253610553565b60405161022b9190613492565b6102686105a2565b60405161022b96959493929190613452565b6102826105c6565b60405161022b919061343e565b61021e61029d36600461333d565b6105ea565b6102536102b0366004613377565b6107bb565b6102c86102c336600461333d565b61080b565b60405161022b9190613487565b6102e86102e33660046132de565b6109a2565b60405161022b91906137b6565b61021e610303366004613377565b610a3a565b610282610a6a565b61026861031e366004613377565b610a8e565b610253610331366004613377565b610ad0565b61021e610344366004613377565b610b17565b61021e610357366004613377565b610b49565b61021e61036a366004613377565b610b5d565b61038261037d366004613309565b610b69565b60405161022b929190613859565b6102c861039e3660046133a7565b610dd6565b61021e610e3a565b6102c86103b936600461333d565b610e47565b6103826103cc3660046133a7565b611096565b61021e611296565b6103ec6103e73660046133c8565b61129c565b005b6103f66113b8565b60405161022b9392919061387d565b6102536113d2565b610415611415565b60405161022b9190613789565b610253610430366004613377565b611450565b61025361146e565b61023c6114ab565b61021e61045336600461333d565b6114b7565b6102536104663660046133a7565b61165b565b6104736116a0565b60405161022b919061377b565b61021e6116cd565b6103ec6104963660046133a7565b61171c565b61047361177c565b6040516370a0823160e01b81526000906001600160a01b037f000000000000000000000000000000000000000000000000000000000000000016906370a08231906104f290309060040161343e565b60206040518083038186803b15801561050a57600080fd5b505afa15801561051e573d6000803e3d6000fd5b505050506040513d601f19601f82011682018060405250810190610542919061338f565b905090565b60005460015460025483565b6040805160608101825260035480825260045463ffffffff80821660208501819052600160201b9092041693830184905260055460065460009561059c949293919291906117a9565b91505090565b600854600954600a54600b54600c54600d546001600160a01b039095169460ff1686565b7f000000000000000000000000000000000000000000000000000000000000000081565b60006105f685856117de565b8054600880546001600160a01b0319166001600160a01b0390921691909117905560018101546009556002810154600a556003810154600b556004810154600c55600590810154600d805460ff909216151560ff1990921691909117905580546006546000610663610553565b90506000610670886107bb565b9050600061068d610685600f85900b84611854565b600f0b611888565b905060008482116106a0578185036106a4565b8482035b90506103e881049003888110156106d65760405162461bcd60e51b81526004016106cd906136f6565b60405180910390fd5b858a0181860360006106e8838361165b565b905086600f0b81600f0b12156107105760405162461bcd60e51b81526004016106cd90613662565b600d805460ff19166001179055600a548d111561073f5760405162461bcd60e51b81526004016106cd9061350e565b600a80548e90039055600b80548501905561075a838361171c565b6107648f8f6118b0565b8d336001600160a01b03167f90bad5276a3a095ef9c17490bcb0fd083cd093442264757cc032c9237ebfda8e8f876040516107a0929190613859565b60405180910390a350919d9c50505050505050505050505050565b6040805160608101825260035480825260045463ffffffff80821660208501819052600160201b90920416938301849052600554600094908601926108019284926119d0565b925050505b919050565b600061081785856117de565b8054600880546001600160a01b0319166001600160a01b039092169190911790556001808201546009556002820154600a8181556003840154600b8181556004860154600c55600590950154600d805460ff909216151560ff199283161790911690941790935590860190558301905560006108916116cd565b9050600061089d6104a3565b604051637f23fb3f60e01b81529091503390637f23fb3f906108c59088908890600401613859565b600060405180830381600087803b1580156108df57600080fd5b505af11580156108f3573d6000803e3d6000fd5b505050508482016109026116cd565b10156109205760405162461bcd60e51b81526004016106cd906135c9565b83810161092b6104a3565b10156109495760405162461bcd60e51b81526004016106cd906134c3565b5050336001600160a01b03167fa8d23733bdb6b6501ae798968944ff3c395cf47459a57ea862484108b86a88c860086040516109859190613805565b60405180910390a261099785856118b0565b506001949350505050565b6109aa61322c565b600083836040516020016109bf92919061341c565b60408051601f1981840301815282825280516020918201206000908152600e825282902060c08401835280546001600160a01b0316845260018101549184019190915260028101549183019190915260038101546060830152600481015460808301526005015460ff16151560a08201529150505b92915050565b600080610a4683610b49565b6006549091506000818311610a5d57828203610a61565b8183035b95945050505050565b7f000000000000000000000000000000000000000000000000000000000000000081565b600e602052600090815260409020805460018201546002830154600384015460048501546005909501546001600160a01b039094169492939192909160ff1686565b6040805160608101825260035480825260045463ffffffff80821660208501819052600160201b9092041693830184905260055460009490869003926108019284926119d0565b6000806305f5e100610b30610b2b85610ad0565b611a85565b670de0b6b3a76400000281610b4157fe5b049392505050565b6000806305f5e100610b30610b2b856107bb565b600080610a4683610b17565b600080610b7685856117de565b8054600880546001600160a01b0319166001600160a01b0390921691909117905560018101546009556002810154600a556003810154600b556004810154600c55600590810154600d805460ff909216151560ff1990921691909117905560075480610bf45760405162461bcd60e51b81526004016106cd906134a0565b8154600183015460008388840281610c0857fe5b049050600084838a0281610c1857fe5b049050600082118015610c2b5750600081115b610c475760405162461bcd60e51b81526004016106cd9061355a565b8382018382016000610c59838361165b565b9050610c63610553565b600f0b81600f0b1215610c885760405162461bcd60e51b81526004016106cd90613662565b6002890180548d019055600d805460ff19166001179055600c80548d0190556000610cb16116cd565b90506000610cbd6104a3565b60405163410eda9560e11b8152909150339063821db52a90610ce5908a908a90600401613859565b600060405180830381600087803b158015610cff57600080fd5b505af1158015610d13573d6000803e3d6000fd5b50505050868201610d226116cd565b1015610d405760405162461bcd60e51b81526004016106cd906135c9565b858101610d4b6104a3565b1015610d695760405162461bcd60e51b81526004016106cd906134c3565b5050610d75838361171c565b610d7f8e8e6118b0565b8c336001600160a01b03167f11d0107c133e58a738f24960e01850fa75840d805eb92836de8035242b342c348787604051610dbb929190613859565b60405180910390a350909c909b509950505050505050505050565b60408051606081018252600554808252600654602083015260075492820192909252600091158015610e0a57506020810151155b610e265760405162461bcd60e51b81526004016106cd90613699565b610e30848461171c565b5060019392505050565b683635c9adc5dea0000081565b6000610e5385856117de565b8054600880546001600160a01b0319166001600160a01b039092169190911790556001808201546009556002820154600a8190556003830154600b556004830154600c55600590920154600d805460ff909216151560ff19928316179091169091179055831115610ed65760405162461bcd60e51b81526004016106cd9061350e565b600b54821115610ef85760405162461bcd60e51b81526004016106cd906136d0565b600a80548490039055600b805483900390556000610f146116cd565b90506000610f206104a3565b604051633a57bfdf60e11b815290915060009033906374af7fbe90610f4b9089908990600401613859565b602060405180830381600087803b158015610f6557600080fd5b505af1158015610f79573d6000803e3d6000fd5b505050506040513d601f19601f82011682018060405250810190610f9d91906132c2565b9050610fd36001600160a01b037f0000000000000000000000000000000000000000000000000000000000000000168288611ad2565b6110076001600160a01b037f0000000000000000000000000000000000000000000000000000000000000000168287611ad2565b61100f6116cd565b86840310156110305760405162461bcd60e51b81526004016106cd906135c9565b6110386104a3565b85830310156110595760405162461bcd60e51b81526004016106cd906134c3565b505050336001600160a01b03167fa8d23733bdb6b6501ae798968944ff3c395cf47459a57ea862484108b86a88c860086040516109859190613805565b6000806110a333856117de565b8054600880546001600160a01b0319166001600160a01b0390921691909117905560018101546009556002810154600a556003810154600b556004810154600c55600590810154600d805460ff909216151560ff19909216919091179055600754806111215760405162461bcd60e51b81526004016106cd906134a0565b815460018301546000838884028161113557fe5b049050600084838a028161114557fe5b0490506000821180156111585750600081115b6111745760405162461bcd60e51b81526004016106cd9061355a565b8184038184036000611186838361165b565b905080600f0b611194610553565b600f0b12156111b55760405162461bcd60e51b81526004016106cd90613662565b8b896002015410156111d95760405162461bcd60e51b81526004016106cd906135a1565b6002890180548d90039055600d805460ff19166001179055600c548c11156112135760405162461bcd60e51b81526004016106cd90613534565b600c80548d90039055600a805486019055600b805485019055611236838361171c565b611240338e6118b0565b8c336001600160a01b03167fa088eb35c82c571c8b3364dab1932e11add4fbe38412e19af8314a3e45da1ca1878760405161127c929190613859565b60405180910390a350909b909a5098505050505050505050565b6103e881565b600454600160201b900463ffffffff16156112c95760405162461bcd60e51b81526004016106cd90613699565b60008163ffffffff16116112ef5760405162461bcd60e51b81526004016106cd906134eb565b6000831161130f5760405162461bcd60e51b81526004016106cd906135f1565b60008263ffffffff16116113355760405162461bcd60e51b81526004016106cd9061372d565b604080516060808201835285825263ffffffff9485166020808401829052949095169183018290526003959095556004805463ffffffff191690941767ffffffff000000001916600160201b90910217909255815192830182526000808452908301819052683635c9adc5dea00000929091018290526005819055600655600755565b60035460045463ffffffff80821691600160201b90041683565b6040805160608101825260035480825260045463ffffffff80821660208501819052600160201b9092041693830184905260055460009461059c939192906119d0565b61141d61326d565b5060408051606081018252600354815260045463ffffffff8082166020840152600160201b909104169181019190915290565b60008061145c83611b3e565b905061146781611b5c565b9392505050565b60408051606081018252600354815260045463ffffffff80821660208401819052600160201b9092041692820183905260009261059c9190611c5c565b60055460065460075483565b60006114c385856117de565b8054600880546001600160a01b0319166001600160a01b0390921691909117905560018101546009556002810154600a556003810154600b556004810154600c55600590810154600d805460ff909216151560ff1990921691909117905580546006546000611530610553565b9050600061153d88610ad0565b90506000611552610685600f85900b84611854565b9050600084821161156557818503611569565b8482035b90506103e8810401808910156115915760405162461bcd60e51b81526004016106cd90613751565b89860385820160006115a3838361165b565b905086600f0b81600f0b12156115cb5760405162461bcd60e51b81526004016106cd90613662565b600d805460ff19166001179055600a80548e019055600b548411156116025760405162461bcd60e51b81526004016106cd906136d0565b600b80548590039055611615838361171c565b61161f8f8f6118b0565b8d336001600160a01b03167ff5bc1c62cbb5b6893dbca14f8dad74fb9485af69c7cdd44e5705cf2f31b27f228f876040516107a0929190613859565b6040805160608101825260035480825260045463ffffffff80821660208501819052600160201b909204169383018490526000938492610a61928892889291906117a9565b6116a861328d565b5060408051606081018252600554815260065460208201526007549181019190915290565b6040516370a0823160e01b81526000906001600160a01b037f000000000000000000000000000000000000000000000000000000000000000016906370a08231906104f290309060040161343e565b60058281556006829055600080548401815560018054840190554360028190556040517f40c2d32ec54ffac45999120b79eb2516538010ed69ffd59c3f8a184d83b1309e9161176e9187918791613867565b60405180910390a150505050565b61178461328d565b5060408051606081018252600054815260015460208201526002549181019190915290565b6000806117b8878686866119d0565b905060006117d2826117c989611c90565b600f0b90611ca4565b98975050505050505050565b60008083836040516020016117f492919061341c565b60408051601f1981840301815291815281516020928301206000818152600e90935291208054919250906001600160a01b031661184c5780546001600160a01b0319166001600160a01b038616178155600181018490555b949350505050565b6000600f83810b9083900b0160016001607f1b0319811280159061187f575060016001607f1b038113155b61146757600080fd5b60006305f5e10061189883611a85565b670de0b6b3a764000002816118a957fe5b0492915050565b600d5460ff166118d25760405162461bcd60e51b81526004016106cd90613639565b60006118de83836117de565b6040805160c0810182526008546001600160a01b039081168083526009546020840152600a5493830193909352600b546060830152600c546080830152600d5460ff16151560a083015283549394509092161461194d5760405162461bcd60e51b81526004016106cd90613616565b80602001518260010154146119745760405162461bcd60e51b81526004016106cd9061357e565b6040810151600283015560608101516003830155608001516004820155600501805460ff19908116909155600880546001600160a01b031916905560006009819055600a819055600b819055600c55600d805490911690555050565b6000806119dc85611c90565b905060006119ea8585611c5c565b905060006119f86001611b3e565b90506000611a0582611b5c565b90506000611a128a611c90565b90506000611a5d6927100000000000000000611a54876117c983611a4b611a3d600f8c900b8a611ca4565b611a4b600f8d900b8c611cd7565b600f0b90611d29565b600f0b90611cd7565b9050611a76611a6b82611b5c565b600f88900b90611d29565b9b9a5050505050505050505050565b6000611aa2611a976305f5e100611b3e565b600f84900b90611d29565b9150600082600f0b13611ab6576000610a34565b611ac282600f0b611d5f565b67ffffffffffffffff1692915050565b604080516001600160a01b038416602482015260448082018490528251808303909101815260649091019091526020810180517bffffffffffffffffffffffffffffffffffffffffffffffffffffffff1663a9059cbb60e01b179052611b39908490611d7b565b505050565b6000677fffffffffffffff821115611b5557600080fd5b5060401b90565b60006753dd02a4f5ee2e4681611b726001611b3e565b90506000611b806002611b3e565b905067413c831bb169f8746748d4c730f051a5fd1968016a09e667f3bcc90868017401c57014c38f131968010fb844255a12d72e6000611bc4600f8c900b85611cd7565b90506000611bfe611bf3611be8611bdd85600f0b611e2c565b600f8e900b90611d29565b600f8c900b90611854565b600f8b900b90611cd7565b90506000611c0c8383611e5f565b9050600083600f0b1215611c2957611c2681600f0b611f5e565b90505b6000611c4a611c3c600f8d900b84611854565b611a4b600f8e900b8d611cd7565b9e9d5050505050505050505050505050565b600080611c73611c6b84611f79565b600f0b611fa6565b90506000611c8085611b3e565b9050610a61600f82900b83611d29565b6000610a3482670de0b6b3a7640000611fc8565b6000600f82810b9084900b0360016001607f1b0319811280159061187f575060016001607f1b0381131561146757600080fd5b600081600f0b60001415611cea57600080fd5b600082600f0b604085600f0b901b81611cff57fe5b05905060016001607f1b0319811280159061187f575060016001607f1b0381131561146757600080fd5b6000600f83810b9083900b0260401d60016001607f1b0319811280159061187f575060016001607f1b0381131561146757600080fd5b60008082600f0b1215611d7157600080fd5b50600f0b60401d90565b6000611dd0826040518060400160405280602081526020017f5361666545524332303a206c6f772d6c6576656c2063616c6c206661696c6564815250856001600160a01b0316611fff9092919063ffffffff16565b805190915015611b3957808060200190516020811015611def57600080fd5b5051611b395760405162461bcd60e51b815260040180806020018281038252602a8152602001806138d8602a913960400191505060405180910390fd5b6000600f82900b60016001607f1b03191415611e4757600080fd5b600082600f0b12611e585781610a34565b5060000390565b60008068016a09e667f3bcc90868017401c57014c38f131968010fb844255a12d72e611ebc611a6b611eb1611ea6611e9b600f8b900b86611d29565b600f87900b90611854565b600f8a900b90611d29565b600f86900b90611854565b9350505050600080611ece6001611b3e565b905067413c831bb169f8746748d4c730f051a5fd196000611f0b611f00611ef58489611854565b600f8b900b90611d29565b600f85900b90611854565b9050611f51611f46611ef5611f3b611f33611f2b600f8f900b600261200e565b600f0b611f5e565b600f0b61209e565b600f85900b90611d29565b600f86900b90611ca4565b9998505050505050505050565b6000600f82900b60016001607f1b03191415611e5857600080fd5b600080611f8583611b3e565b90506000611f966301dfe200611b3e565b9050610801600f83900b82611cd7565b60008082600f0b1215611fb857600080fd5b610a34604083600f0b901b6120f8565b600081611fd457600080fd5b6000611fe0848461223e565b905060016001607f1b036001600160801b038216111561146757600080fd5b606061184c8484600085612398565b60008060008085600f0b126120355761202e603f86600f0b901b856124f3565b9150612059565b61204f603f866000036001600160801b0316901b856124f3565b9150506001831615155b603f82901c91508015612082576001607f1b82111561207757600080fd5b506000039050610a34565b60016001607f1b0382111561209657600080fd5b509050610a34565b60006840000000000000000082600f0b126120b857600080fd5b683fffffffffffffffff1982600f0b12156120d557506000610806565b610a34608083600f0b700171547652b82fe1777d0ffda0d23a7d1202901d6126c5565b60008161210757506000610806565b816001600160801b82106121205760809190911c9060401b5b68010000000000000000821061213b5760409190911c9060201b5b600160201b82106121515760209190911c9060101b5b6201000082106121665760109190911c9060081b5b610100821061217a5760089190911c9060041b5b6010821061218d5760049190911c9060021b5b600882106121995760011b5b60018185816121a457fe5b048201901c905060018185816121b657fe5b048201901c905060018185816121c857fe5b048201901c905060018185816121da57fe5b048201901c905060018185816121ec57fe5b048201901c905060018185816121fe57fe5b048201901c9050600181858161221057fe5b048201901c9050600081858161222257fe5b0490508082106122325780612234565b815b9350505050610806565b60008161224a57600080fd5b600077ffffffffffffffffffffffffffffffffffffffffffffffff84116122805782604085901b8161227857fe5b049050612384565b60c084811c600160201b8110612298576020918201911c5b6201000081106122aa576010918201911c5b61010081106122bb576008918201911c5b601081106122cb576004918201911c5b600481106122db576002918201911c5b600281106122ea576001820191505b60bf820360018603901c6001018260ff0387901b8161230557fe5b0492506001600160801b0383111561231c57600080fd5b608085901c83026001600160801b038616840260c088901c604089901b82811015612348576001820391505b608084901b9290038281101561235f576001820391505b829003608084901c821461236f57fe5b88818161237857fe5b04870196505050505050505b6001600160801b0381111561146757600080fd5b6060824710156123d95760405162461bcd60e51b81526004018080602001828103825260268152602001806138b26026913960400191505060405180910390fd5b6123e285613182565b612433576040805162461bcd60e51b815260206004820152601d60248201527f416464726573733a2063616c6c20746f206e6f6e2d636f6e7472616374000000604482015290519081900360640190fd5b600080866001600160a01b031685876040518082805190602001908083835b602083106124715780518252601f199092019160209182019101612452565b6001836020036101000a03801982511681845116808217855250505050505090500191505060006040518083038185875af1925050503d80600081146124d3576040519150601f19603f3d011682016040523d82523d6000602084013e6124d8565b606091505b50915091506124e8828286613188565b979650505050505050565b60008161250557506001607f1b610a34565b8261251257506000610a34565b600083600160801b8110612528576080918201911c5b680100000000000000008110612540576040918201911c5b600160201b8110612553576020918201911c5b620100008110612565576010918201911c5b6101008110612576576008918201911c5b60108110612586576004918201911c5b60048110612596576002918201911c5b600281106125a5576001820191505b607e19820160008113156125bc5794851c946125c6565b8060000386901b95505b6001607f1b60005b86156126945760018716156126365760001990960195908702908201600160ff1b82106126045760809190911c9060010161260c565b607f82901c91505b607e1981121561262457600095505050505050610a34565b6080811261263157600080fd5b61268f565b96800296600196871c969290921b91600160ff1b881061266257608088901c975060018301925061266a565b607f88901c97505b607e1983121561268257600095505050505050610a34565b6080831261268f57600080fd5b6125ce565b60008113156126a65790811b906126b9565b60008112156126b9578060000382901c91505b509350610a3492505050565b60006840000000000000000082600f0b126126df57600080fd5b683fffffffffffffffff1982600f0b12156126fc57506000610806565b6001607f1b60006780000000000000008416600f0b131561272e5770016a09e667f3bcc908b2fb1366ea957d3e0260801c5b60008367400000000000000016600f0b131561275b577001306fe0a31b7152de8d5a46305c85edec0260801c5b60008367200000000000000016600f0b1315612788577001172b83c7d517adcdf7c8c50eb14a791f0260801c5b60008367100000000000000016600f0b13156127b55770010b5586cf9890f6298b92b71842a983630260801c5b60008367080000000000000016600f0b13156127e2577001059b0d31585743ae7c548eb68ca417fd0260801c5b60008367040000000000000016600f0b131561280f57700102c9a3e778060ee6f7caca4f7a29bde80260801c5b60008367020000000000000016600f0b131561283c5770010163da9fb33356d84a66ae336dcdfa3f0260801c5b60008367010000000000000016600f0b131561286957700100b1afa5abcbed6129ab13ec11dc95430260801c5b600083668000000000000016600f0b13156128955770010058c86da1c09ea1ff19d294cf2f679b0260801c5b600083664000000000000016600f0b13156128c1577001002c605e2e8cec506d21bfc89a23a00f0260801c5b600083662000000000000016600f0b13156128ed57700100162f3904051fa128bca9c55c31e5df0260801c5b600083661000000000000016600f0b1315612919577001000b175effdc76ba38e31671ca9397250260801c5b600083660800000000000016600f0b131561294557700100058ba01fb9f96d6cacd4b180917c3d0260801c5b600083660400000000000016600f0b13156129715770010002c5cc37da9491d0985c348c68e7b30260801c5b600083660200000000000016600f0b131561299d577001000162e525ee054754457d59952920260260801c5b600083660100000000000016600f0b13156129c95770010000b17255775c040618bf4a4ade83fc0260801c5b6000836580000000000016600f0b13156129f4577001000058b91b5bc9ae2eed81e9b7d4cfab0260801c5b6000836540000000000016600f0b1315612a1f57700100002c5c89d5ec6ca4d7c8acc017b7c90260801c5b6000836520000000000016600f0b1315612a4a5770010000162e43f4f831060e02d839a9d16d0260801c5b6000836510000000000016600f0b1315612a7557700100000b1721bcfc99d9f890ea069117630260801c5b6000836508000000000016600f0b1315612aa05770010000058b90cf1e6d97f9ca14dbcc16280260801c5b6000836504000000000016600f0b1315612acb577001000002c5c863b73f016468f6bac5ca2b0260801c5b6000836502000000000016600f0b1315612af657700100000162e430e5a18f6119e3c02282a50260801c5b6000836501000000000016600f0b1315612b21577001000000b1721835514b86e6d96efd1bfe0260801c5b60008364800000000016600f0b1315612b4b57700100000058b90c0b48c6be5df846c5b2ef0260801c5b60008364400000000016600f0b1315612b755770010000002c5c8601cc6b9e94213c72737a0260801c5b60008364200000000016600f0b1315612b9f577001000000162e42fff037df38aa2b219f060260801c5b60008364100000000016600f0b1315612bc95770010000000b17217fba9c739aa5819f44f90260801c5b60008364080000000016600f0b1315612bf3577001000000058b90bfcdee5acd3c1cedc8230260801c5b60008364040000000016600f0b1315612c1d57700100000002c5c85fe31f35a6a30da1be500260801c5b60008364020000000016600f0b1315612c475770010000000162e42ff0999ce3541b9fffcf0260801c5b600083600160201b16600f0b1315612c7057700100000000b17217f80f4ef5aadda455540260801c5b600083638000000016600f0b1315612c995770010000000058b90bfbf8479bd5a81b51ad0260801c5b600083634000000016600f0b1315612cc2577001000000002c5c85fdf84bd62ae30a74cc0260801c5b600083632000000016600f0b1315612ceb57700100000000162e42fefb2fed257559bdaa0260801c5b600083631000000016600f0b1315612d14577001000000000b17217f7d5a7716bba4a9ae0260801c5b600083630800000016600f0b1315612d3d57700100000000058b90bfbe9ddbac5e109cce0260801c5b600083630400000016600f0b1315612d665770010000000002c5c85fdf4b15de6f17eb0d0260801c5b600083630200000016600f0b1315612d8f577001000000000162e42fefa494f1478fde050260801c5b600083630100000016600f0b1315612db85770010000000000b17217f7d20cf927c8e94c0260801c5b6000836280000016600f0b1315612de0577001000000000058b90bfbe8f71cb4e4b33d0260801c5b6000836240000016600f0b1315612e0857700100000000002c5c85fdf477b662b269450260801c5b6000836220000016600f0b1315612e305770010000000000162e42fefa3ae53369388c0260801c5b6000836210000016600f0b1315612e5857700100000000000b17217f7d1d351a389d400260801c5b6000836208000016600f0b1315612e805770010000000000058b90bfbe8e8b2d3d4ede0260801c5b6000836204000016600f0b1315612ea8577001000000000002c5c85fdf4741bea6e77e0260801c5b6000836202000016600f0b1315612ed057700100000000000162e42fefa39fe95583c20260801c5b6000836201000016600f0b1315612ef8577001000000000000b17217f7d1cfb72b45e10260801c5b60008361800016600f0b1315612f1f57700100000000000058b90bfbe8e7cc35c3f00260801c5b60008361400016600f0b1315612f465770010000000000002c5c85fdf473e242ea380260801c5b60008361200016600f0b1315612f6d577001000000000000162e42fefa39f02b772c0260801c5b60008361100016600f0b1315612f945770010000000000000b17217f7d1cf7d83c1a0260801c5b60008361080016600f0b1315612fbb577001000000000000058b90bfbe8e7bdcbe2e0260801c5b60008361040016600f0b1315612fe257700100000000000002c5c85fdf473dea871f0260801c5b60008361020016600f0b13156130095770010000000000000162e42fefa39ef44d910260801c5b60008361010016600f0b131561303057700100000000000000b17217f7d1cf79e9490260801c5b600083608016600f0b13156130565770010000000000000058b90bfbe8e7bce5440260801c5b600083604016600f0b131561307c577001000000000000002c5c85fdf473de6eca0260801c5b600083602016600f0b13156130a257700100000000000000162e42fefa39ef366f0260801c5b600083601016600f0b13156130c8577001000000000000000b17217f7d1cf79afa0260801c5b600083600816600f0b13156130ee57700100000000000000058b90bfbe8e7bcd6d0260801c5b600083600416600f0b13156131145770010000000000000002c5c85fdf473de6b20260801c5b600083600216600f0b131561313a577001000000000000000162e42fefa39ef3580260801c5b600083600116600f0b13156131605770010000000000000000b17217f7d1cf79ab0260801c5b600f83810b60401d603f03900b1c60016001607f1b03811115610a3457600080fd5b3b151590565b60608315613197575081611467565b8251156131a75782518084602001fd5b8160405162461bcd60e51b81526004018080602001828103825283818151815260200191508051906020019080838360005b838110156131f15781810151838201526020016131d9565b50505050905090810190601f16801561321e5780820380516001836020036101000a031916815260200191505b509250505060405180910390fd5b6040518060c0016040528060006001600160a01b03168152602001600081526020016000815260200160008152602001600081526020016000151581525090565b604080516060810182526000808252602082018190529181019190915290565b60405180606001604052806000815260200160008152602001600081525090565b803563ffffffff8116811461080657600080fd5b6000602082840312156132d3578081fd5b815161146781613899565b600080604083850312156132f0578081fd5b82356132fb81613899565b946020939093013593505050565b60008060006060848603121561331d578081fd5b833561332881613899565b95602085013595506040909401359392505050565b60008060008060808587031215613352578081fd5b843561335d81613899565b966020860135965060408601359560600135945092505050565b600060208284031215613388578081fd5b5035919050565b6000602082840312156133a0578081fd5b5051919050565b600080604083850312156133b9578182fd5b50508035926020909101359150565b6000806000606084860312156133dc578283fd5b833592506133ec602085016132ae565b91506133fa604085016132ae565b90509250925092565b8051825260208082015190830152604090810151910152565b60609290921b6bffffffffffffffffffffffff19168252601482015260340190565b6001600160a01b0391909116815260200190565b6001600160a01b039690961686526020860194909452604085019290925260608401526080830152151560a082015260c00190565b901515815260200190565b600f9190910b815260200190565b602080825260099082015268139bdd08189bdd5b9960ba1b604082015260600190565b6020808252600e908201526d2737ba1032b737bab3b4102a2c9960911b604082015260600190565b602080825260099082015268054696d6520697320360bc1b604082015260600190565b6020808252600c908201526b09cdee840cadcdeeaced040b60a31b604082015260600190565b6020808252600c908201526b139bdd08195b9bdd59da081360a21b604082015260600190565b6020808252600a9082015269044656c746120697320360b41b604082015260600190565b6020808252600990820152684e6f74206e6f6e636560b81b604082015260600190565b6020808252600e908201526d20b137bb329036b0bc10313ab93760911b604082015260600190565b6020808252600e908201526d4e6f7420656e6f7567682054583160901b604082015260600190565b6020808252600b908201526a0537472696b6520697320360ac1b604082015260600190565b6020808252600990820152682737ba1037bbb732b960b91b604082015260600190565b6020808252600f908201526e141bdcda5d1a5bdb881b1bd8dad959608a1b604082015260600190565b60208082526011908201527f496e76616c696420696e76617269616e74000000000000000000000000000000604082015260600190565b60208082526013908201527f416c726561647920696e697469616c697a656400000000000000000000000000604082015260600190565b6020808252600c908201526b4e6f7420656e6f756768205960a01b604082015260600190565b60208082526014908201527f4e6f7420656e6f75676820592072656d6f766564000000000000000000000000604082015260600190565b6020808252600a908201526905369676d6120697320360b41b604082015260600190565b60208082526010908201526f151bdbc81b5d58da081648185919195960821b604082015260600190565b60608101610a348284613403565b8151815260208083015163ffffffff90811691830191909152604092830151169181019190915260600190565b600060c0820190506001600160a01b0383511682526020830151602083015260408301516040830152606083015160608301526080830151608083015260a0830151151560a083015292915050565b81546001600160a01b031681526001820154602082015260028201546040820152600382015460608201526004820154608082015260059091015460ff16151560a082015260c00190565b90815260200190565b918252602082015260400190565b9283526020830191909152604082015260600190565b92835263ffffffff918216602084015216604082015260600190565b6001600160a01b03811681146138ae57600080fd5b5056fe416464726573733a20696e73756666696369656e742062616c616e636520666f722063616c6c5361666545524332303a204552433230206f7065726174696f6e20646964206e6f742073756363656564a26469706673582212201db2cb6487d57d37de651f0761be05f5c8113138d15639746507ca41d407066464736f6c63430007060033",
  "devdoc": {
    "kind": "dev",
    "methods": {
      "addX(address,uint256,uint256,uint256)": {
        "returns": {
          "_0": "Amount of Y removed."
        }
      },
      "getOutputAmount(uint256)": {
        "details": "R1 = x, R2 = y"
      },
      "removeX(address,uint256,uint256,uint256)": {
        "returns": {
          "_0": "Amount of Y added."
        }
      }
    },
    "version": 1
  },
  "userdoc": {
    "kind": "user",
    "methods": {
      "_getInputR2(uint256)": {
        "notice": "Fetches a new R2 from a decreased R1."
      },
      "_getOutputR2(uint256)": {
        "notice": "Fetches a new R2 from an increased R1. F(R1)."
      },
      "_update(uint256,uint256)": {
        "notice": "Updates R to new values for X and Y."
      },
      "addX(address,uint256,uint256,uint256)": {
        "notice": "Updates the reserves after adding X and removing Y."
      },
      "getInputAmount(uint256)": {
        "notice": "Fetches the amount of y which must enter the R2 to preserve the invariant."
      },
      "getOutputAmount(uint256)": {
        "notice": "Fetches the amount of y which must leave the R2 to preserve the invariant."
      },
      "removeX(address,uint256,uint256,uint256)": {
        "notice": "Updates the reserves after removing X and adding Y."
      }
    },
    "version": 1
  },
  "storageLayout": {
    "storage": [
      {
        "astId": 4572,
        "contract": "contracts/PrimitiveEngine.sol:PrimitiveEngine",
        "label": "accumulator",
        "offset": 0,
        "slot": "0",
        "type": "t_struct(Accumulator)4553_storage"
      },
      {
        "astId": 4574,
        "contract": "contracts/PrimitiveEngine.sol:PrimitiveEngine",
        "label": "calibration",
        "offset": 0,
        "slot": "3",
        "type": "t_struct(Calibration)4539_storage"
      },
      {
        "astId": 4576,
        "contract": "contracts/PrimitiveEngine.sol:PrimitiveEngine",
        "label": "capital",
        "offset": 0,
        "slot": "5",
        "type": "t_struct(Capital)4546_storage"
      },
      {
        "astId": 4578,
        "contract": "contracts/PrimitiveEngine.sol:PrimitiveEngine",
        "label": "activePosition",
        "offset": 0,
        "slot": "8",
        "type": "t_struct(Position)4566_storage"
      },
      {
        "astId": 4582,
        "contract": "contracts/PrimitiveEngine.sol:PrimitiveEngine",
        "label": "positions",
        "offset": 0,
        "slot": "14",
        "type": "t_mapping(t_bytes32,t_struct(Position)4566_storage)"
      }
    ],
    "types": {
      "t_address": {
        "encoding": "inplace",
        "label": "address",
        "numberOfBytes": "20"
      },
      "t_bool": {
        "encoding": "inplace",
        "label": "bool",
        "numberOfBytes": "1"
      },
      "t_bytes32": {
        "encoding": "inplace",
        "label": "bytes32",
        "numberOfBytes": "32"
      },
      "t_mapping(t_bytes32,t_struct(Position)4566_storage)": {
        "encoding": "mapping",
        "key": "t_bytes32",
        "label": "mapping(bytes32 => struct PrimitiveEngine.Position)",
        "numberOfBytes": "32",
        "value": "t_struct(Position)4566_storage"
      },
      "t_struct(Accumulator)4553_storage": {
        "encoding": "inplace",
        "label": "struct PrimitiveEngine.Accumulator",
        "members": [
          {
            "astId": 4548,
            "contract": "contracts/PrimitiveEngine.sol:PrimitiveEngine",
            "label": "ARX1",
            "offset": 0,
            "slot": "0",
            "type": "t_uint256"
          },
          {
            "astId": 4550,
            "contract": "contracts/PrimitiveEngine.sol:PrimitiveEngine",
            "label": "ARX2",
            "offset": 0,
            "slot": "1",
            "type": "t_uint256"
          },
          {
            "astId": 4552,
            "contract": "contracts/PrimitiveEngine.sol:PrimitiveEngine",
            "label": "blockNumberLast",
            "offset": 0,
            "slot": "2",
            "type": "t_uint256"
          }
        ],
        "numberOfBytes": "96"
      },
      "t_struct(Calibration)4539_storage": {
        "encoding": "inplace",
        "label": "struct PrimitiveEngine.Calibration",
        "members": [
          {
            "astId": 4534,
            "contract": "contracts/PrimitiveEngine.sol:PrimitiveEngine",
            "label": "strike",
            "offset": 0,
            "slot": "0",
            "type": "t_uint256"
          },
          {
            "astId": 4536,
            "contract": "contracts/PrimitiveEngine.sol:PrimitiveEngine",
            "label": "sigma",
            "offset": 0,
            "slot": "1",
            "type": "t_uint32"
          },
          {
            "astId": 4538,
            "contract": "contracts/PrimitiveEngine.sol:PrimitiveEngine",
            "label": "time",
            "offset": 4,
            "slot": "1",
            "type": "t_uint32"
          }
        ],
        "numberOfBytes": "64"
      },
      "t_struct(Capital)4546_storage": {
        "encoding": "inplace",
        "label": "struct PrimitiveEngine.Capital",
        "members": [
          {
            "astId": 4541,
            "contract": "contracts/PrimitiveEngine.sol:PrimitiveEngine",
            "label": "RX1",
            "offset": 0,
            "slot": "0",
            "type": "t_uint256"
          },
          {
            "astId": 4543,
            "contract": "contracts/PrimitiveEngine.sol:PrimitiveEngine",
            "label": "RX2",
            "offset": 0,
            "slot": "1",
            "type": "t_uint256"
          },
          {
            "astId": 4545,
            "contract": "contracts/PrimitiveEngine.sol:PrimitiveEngine",
            "label": "liquidity",
            "offset": 0,
            "slot": "2",
            "type": "t_uint256"
          }
        ],
        "numberOfBytes": "96"
      },
      "t_struct(Position)4566_storage": {
        "encoding": "inplace",
        "label": "struct PrimitiveEngine.Position",
        "members": [
          {
            "astId": 4555,
            "contract": "contracts/PrimitiveEngine.sol:PrimitiveEngine",
            "label": "owner",
            "offset": 0,
            "slot": "0",
            "type": "t_address"
          },
          {
            "astId": 4557,
            "contract": "contracts/PrimitiveEngine.sol:PrimitiveEngine",
            "label": "nonce",
            "offset": 0,
            "slot": "1",
            "type": "t_uint256"
          },
          {
            "astId": 4559,
            "contract": "contracts/PrimitiveEngine.sol:PrimitiveEngine",
            "label": "BX1",
            "offset": 0,
            "slot": "2",
            "type": "t_uint256"
          },
          {
            "astId": 4561,
            "contract": "contracts/PrimitiveEngine.sol:PrimitiveEngine",
            "label": "BY2",
            "offset": 0,
            "slot": "3",
            "type": "t_uint256"
          },
          {
            "astId": 4563,
            "contract": "contracts/PrimitiveEngine.sol:PrimitiveEngine",
            "label": "liquidity",
            "offset": 0,
            "slot": "4",
            "type": "t_uint256"
          },
          {
            "astId": 4565,
            "contract": "contracts/PrimitiveEngine.sol:PrimitiveEngine",
            "label": "unlocked",
            "offset": 0,
            "slot": "5",
            "type": "t_bool"
          }
        ],
        "numberOfBytes": "192"
      },
      "t_uint256": {
        "encoding": "inplace",
        "label": "uint256",
        "numberOfBytes": "32"
      },
      "t_uint32": {
        "encoding": "inplace",
        "label": "uint32",
        "numberOfBytes": "4"
      }
    }
  }
}