{
  "address": "0xdFbf0753211b7D65400dBd7ec1678D1b5DE51823",
  "abi": [
    {
      "inputs": [],
      "stateMutability": "nonpayable",
      "type": "constructor"
    },
    {
      "inputs": [],
      "name": "CALLER",
      "outputs": [
        {
          "internalType": "address",
          "name": "",
          "type": "address"
        }
      ],
      "stateMutability": "view",
      "type": "function"
    },
    {
      "inputs": [],
      "name": "NO_CALLER",
      "outputs": [
        {
          "internalType": "address",
          "name": "",
          "type": "address"
        }
      ],
      "stateMutability": "view",
      "type": "function"
    },
    {
      "inputs": [
        {
          "internalType": "uint256",
          "name": "nonce",
          "type": "uint256"
        },
        {
          "internalType": "uint256",
          "name": "deltaX",
          "type": "uint256"
        },
        {
          "internalType": "uint256",
          "name": "deltaY",
          "type": "uint256"
        }
      ],
      "name": "addDirect",
      "outputs": [],
      "stateMutability": "nonpayable",
      "type": "function"
    },
    {
      "inputs": [
        {
          "internalType": "uint256",
          "name": "nonce",
          "type": "uint256"
        },
        {
          "internalType": "uint256",
          "name": "deltaL",
          "type": "uint256"
        }
      ],
      "name": "addLiquidity",
      "outputs": [],
      "stateMutability": "nonpayable",
      "type": "function"
    },
    {
      "inputs": [
        {
          "internalType": "uint256",
          "name": "deltaX",
          "type": "uint256"
        },
        {
          "internalType": "uint256",
          "name": "deltaY",
          "type": "uint256"
        }
      ],
      "name": "addXYCallback",
      "outputs": [],
      "stateMutability": "nonpayable",
      "type": "function"
    },
    {
      "inputs": [
        {
          "internalType": "uint256",
          "name": "deltaX",
          "type": "uint256"
        },
        {
          "internalType": "uint256",
          "name": "deltaY",
          "type": "uint256"
        }
      ],
      "name": "directDepositCallback",
      "outputs": [],
      "stateMutability": "nonpayable",
      "type": "function"
    },
    {
      "inputs": [],
      "name": "engine",
      "outputs": [
        {
          "internalType": "contract IPrimitiveEngine",
          "name": "",
          "type": "address"
        }
      ],
      "stateMutability": "view",
      "type": "function"
    },
    {
      "inputs": [],
      "name": "getCaller",
      "outputs": [
        {
          "internalType": "address",
          "name": "",
          "type": "address"
        }
      ],
      "stateMutability": "view",
      "type": "function"
    },
    {
      "inputs": [
        {
          "internalType": "address",
          "name": "engine_",
          "type": "address"
        }
      ],
      "name": "initialize",
      "outputs": [],
      "stateMutability": "nonpayable",
      "type": "function"
    },
    {
      "inputs": [
        {
          "internalType": "uint256",
          "name": "nonce",
          "type": "uint256"
        },
        {
          "internalType": "uint256",
          "name": "deltaX",
          "type": "uint256"
        },
        {
          "internalType": "uint256",
          "name": "deltaY",
          "type": "uint256"
        }
      ],
      "name": "removeDirect",
      "outputs": [],
      "stateMutability": "nonpayable",
      "type": "function"
    },
    {
      "inputs": [
        {
          "internalType": "uint256",
          "name": "deltaX",
          "type": "uint256"
        },
        {
          "internalType": "uint256",
          "name": "deltaY",
          "type": "uint256"
        }
      ],
      "name": "withdrawalCallback",
      "outputs": [
        {
          "internalType": "address",
          "name": "",
          "type": "address"
        }
      ],
      "stateMutability": "nonpayable",
      "type": "function"
    }
  ],
  "transactionHash": "0x9f8a63ca8bca9e232c4e662bb33a76dae8bdbac6299d210f482b07df960e6f9b",
  "args": [],
  "solcInputHash": "841d80cdef5e9c9868692577938e9b42",
  "bytecode": "0x6080604052600180546001600160a01b031916601517905534801561002357600080fd5b50610c4a806100336000396000f3fe608060405234801561001057600080fd5b50600436106100b95760003560e01c8063863dabb411610081578063ab470f051161005b578063ab470f05146101ca578063c4d66de8146101d2578063c9d4623f146101f8576100b9565b8063863dabb4146101765780639cd441da1461017e5780639e73a945146101a1576100b9565b80632293f086146100be578063734f26b1146100e957806374af7fbe1461010d5780637f23fb3f14610130578063821db52a14610153575b600080fd5b6100e7600480360360608110156100d457600080fd5b5080359060208101359060400135610200565b005b6100f16102f8565b604080516001600160a01b039092168252519081900360200190f35b6100f16004803603604081101561012357600080fd5b50803590602001356102fd565b6100e76004803603604081101561014657600080fd5b50803590602001356103fb565b6100e76004803603604081101561016957600080fd5b5080359060200135610409565b6100f161062d565b6100e76004803603604081101561019457600080fd5b508035906020013561063c565b6100e7600480360360608110156101b757600080fd5b5080359060208101359060400135610726565b6100f16107e8565b6100e7600480360360208110156101e857600080fd5b50356001600160a01b03166107f7565b6100f1610877565b60025460011415610241576040805162461bcd60e51b81526020600482015260066024820152651b1bd8dad95960d21b604482015290519081900360640190fd5b6001600281905580546001600160a01b031916339081179091556000805460408051630b76da0560e41b81526004810194909452602484018790526044840186905260648401859052516001600160a01b03919091169263b76da0509260848083019360209390929083900390910190829087803b1580156102c257600080fd5b505af11580156102d6573d6000803e3d6000fd5b505050506040513d60208110156102ec57600080fd5b50506000600255505050565b601581565b6000600254600114610344576040805162461bcd60e51b815260206004820152600b60248201526a139bdd0819dd585c99195960aa1b604482015290519081900360640190fd5b6001546001600160a01b031660151415610395576040805162461bcd60e51b815260206004820152600d60248201526c139bc818d85b1b195c881cd95d609a1b604482015290519081900360640190fd5b6000546001600160a01b031633146103e8576040805162461bcd60e51b815260206004820152601160248201527022b733b4b732903737ba1039b2b73232b960791b604482015290519081900360640190fd5b506001546001600160a01b031692915050565b6104058282610409565b5050565b60025460011461044e576040805162461bcd60e51b815260206004820152600b60248201526a139bdd0819dd585c99195960aa1b604482015290519081900360640190fd5b6001546001600160a01b03166015141561049f576040805162461bcd60e51b815260206004820152600d60248201526c139bc818d85b1b195c881cd95d609a1b604482015290519081900360640190fd5b6000546001600160a01b031633146104f2576040805162461bcd60e51b815260206004820152601160248201527022b733b4b732903737ba1039b2b73232b960791b604482015290519081900360640190fd5b60008060009054906101000a90046001600160a01b03166001600160a01b0316634ba150286040518163ffffffff1660e01b815260040160206040518083038186803b15801561054157600080fd5b505afa158015610555573d6000803e3d6000fd5b505050506040513d602081101561056b57600080fd5b505160008054604080516308abe16960e11b8152905193945091926001600160a01b0390911691631157c2d2916004808301926020929190829003018186803b1580156105b757600080fd5b505afa1580156105cb573d6000803e3d6000fd5b505050506040513d60208110156105e157600080fd5b50519050831561060657600154610606906001600160a01b0384811691163387610886565b821561062757600154610627906001600160a01b0383811691163386610886565b50505050565b6001546001600160a01b031681565b6002546001141561067d576040805162461bcd60e51b81526020600482015260066024820152651b1bd8dad95960d21b604482015290519081900360640190fd5b6001600281905580546001600160a01b031916339081179091556000805460408051638b99bcb560e01b81526004810194909452602484018690526044840185905280516001600160a01b039290921693638b99bcb593606480830194928390030190829087803b1580156106f157600080fd5b505af1158015610705573d6000803e3d6000fd5b505050506040513d604081101561071b57600080fd5b505060006002555050565b60025460011415610767576040805162461bcd60e51b81526020600482015260066024820152651b1bd8dad95960d21b604482015290519081900360640190fd5b6001600281905580546001600160a01b031916339081179091556000805460408051633a6d00b360e01b81526004810194909452602484018790526044840186905260648401859052516001600160a01b039190911692633a6d00b39260848083019360209390929083900390910190829087803b1580156102c257600080fd5b6001546001600160a01b031690565b6000546001600160a01b031615610855576040805162461bcd60e51b815260206004820152601360248201527f416c726561647920696e697469616c697a656400000000000000000000000000604482015290519081900360640190fd5b600080546001600160a01b0319166001600160a01b0392909216919091179055565b6000546001600160a01b031681565b604080516001600160a01b0380861660248301528416604482015260648082018490528251808303909101815260849091019091526020810180517bffffffffffffffffffffffffffffffffffffffffffffffffffffffff166323b872dd60e01b1790526106279085906000610945826040518060400160405280602081526020017f5361666545524332303a206c6f772d6c6576656c2063616c6c206661696c6564815250856001600160a01b03166109a69092919063ffffffff16565b8051909150156109a15780806020019051602081101561096457600080fd5b50516109a15760405162461bcd60e51b815260040180806020018281038252602a815260200180610beb602a913960400191505060405180910390fd5b505050565b60606109b584846000856109bf565b90505b9392505050565b606082471015610a005760405162461bcd60e51b8152600401808060200182810382526026815260200180610bc56026913960400191505060405180910390fd5b610a0985610b1a565b610a5a576040805162461bcd60e51b815260206004820152601d60248201527f416464726573733a2063616c6c20746f206e6f6e2d636f6e7472616374000000604482015290519081900360640190fd5b600080866001600160a01b031685876040518082805190602001908083835b60208310610a985780518252601f199092019160209182019101610a79565b6001836020036101000a03801982511681845116808217855250505050505090500191505060006040518083038185875af1925050503d8060008114610afa576040519150601f19603f3d011682016040523d82523d6000602084013e610aff565b606091505b5091509150610b0f828286610b20565b979650505050505050565b3b151590565b60608315610b2f5750816109b8565b825115610b3f5782518084602001fd5b8160405162461bcd60e51b81526004018080602001828103825283818151815260200191508051906020019080838360005b83811015610b89578181015183820152602001610b71565b50505050905090810190601f168015610bb65780820380516001836020036101000a031916815260200191505b509250505060405180910390fdfe416464726573733a20696e73756666696369656e742062616c616e636520666f722063616c6c5361666545524332303a204552433230206f7065726174696f6e20646964206e6f742073756363656564a26469706673582212200a76bb0468fb039abc00a1dc9b89c580497fb800ac02fbc9a52b257db41b405864736f6c63430007060033",
  "devdoc": {
    "kind": "dev",
    "methods": {},
    "version": 1
  },
  "userdoc": {
    "kind": "user",
    "methods": {},
    "version": 1
  },
  "storageLayout": {
    "storage": [
      {
        "astId": 6156,
        "contract": "contracts/PrimitiveHouse.sol:PrimitiveHouse",
        "label": "engine",
        "offset": 0,
        "slot": "0",
        "type": "t_contract(IPrimitiveEngine)4423"
      },
      {
        "astId": 6159,
        "contract": "contracts/PrimitiveHouse.sol:PrimitiveHouse",
        "label": "CALLER",
        "offset": 0,
        "slot": "1",
        "type": "t_address"
      },
      {
        "astId": 6161,
        "contract": "contracts/PrimitiveHouse.sol:PrimitiveHouse",
        "label": "reentrant",
        "offset": 0,
        "slot": "2",
        "type": "t_uint256"
      }
    ],
    "types": {
      "t_address": {
        "encoding": "inplace",
        "label": "address",
        "numberOfBytes": "20"
      },
      "t_contract(IPrimitiveEngine)4423": {
        "encoding": "inplace",
        "label": "contract IPrimitiveEngine",
        "numberOfBytes": "20"
      },
      "t_uint256": {
        "encoding": "inplace",
        "label": "uint256",
        "numberOfBytes": "32"
      }
    }
  }
}